{
  "contractName": "RoleBasedAcl",
  "abi": [
    {
      "constant": true,
      "inputs": [
        {
          "name": "",
          "type": "address"
        }
      ],
      "name": "userAddressIndexes",
      "outputs": [
        {
          "name": "",
          "type": "uint256"
        }
      ],
      "payable": false,
      "stateMutability": "view",
      "type": "function"
    },
    {
      "constant": true,
      "inputs": [
        {
          "name": "",
          "type": "uint256"
        }
      ],
      "name": "userAddress",
      "outputs": [
        {
          "name": "",
          "type": "address"
        }
      ],
      "payable": false,
      "stateMutability": "view",
      "type": "function"
    },
    {
      "inputs": [],
      "payable": false,
      "stateMutability": "nonpayable",
      "type": "constructor"
    },
    {
      "anonymous": false,
      "inputs": [
        {
          "indexed": true,
          "name": "account",
          "type": "address"
        },
        {
          "indexed": false,
          "name": "role",
          "type": "uint8"
        }
      ],
      "name": "RoleAdded",
      "type": "event"
    },
    {
      "anonymous": false,
      "inputs": [
        {
          "indexed": true,
          "name": "account",
          "type": "address"
        },
        {
          "indexed": false,
          "name": "role",
          "type": "uint8"
        }
      ],
      "name": "RoleRemoved",
      "type": "event"
    },
    {
      "constant": false,
      "inputs": [
        {
          "name": "_account",
          "type": "address"
        },
        {
          "name": "_role",
          "type": "uint8"
        }
      ],
      "name": "addRole",
      "outputs": [],
      "payable": false,
      "stateMutability": "nonpayable",
      "type": "function"
    },
    {
      "constant": false,
      "inputs": [
        {
          "name": "_account",
          "type": "address"
        },
        {
          "name": "_role",
          "type": "uint8"
        }
      ],
      "name": "removeRole",
      "outputs": [],
      "payable": false,
      "stateMutability": "nonpayable",
      "type": "function"
    },
    {
      "constant": true,
      "inputs": [
        {
          "name": "_account",
          "type": "address"
        },
        {
          "name": "_role",
          "type": "uint8"
        }
      ],
      "name": "hasRole",
      "outputs": [
        {
          "name": "",
          "type": "bool"
        }
      ],
      "payable": false,
      "stateMutability": "view",
      "type": "function"
    },
    {
      "constant": true,
      "inputs": [],
      "name": "getAllAddressAndRole",
      "outputs": [
        {
          "name": "",
          "type": "address[]"
        },
        {
          "name": "",
          "type": "uint8[]"
        }
      ],
      "payable": false,
      "stateMutability": "view",
      "type": "function"
    }
  ],
  "bytecode": "0x608060405234801561001057600080fd5b5060016000803373ffffffffffffffffffffffffffffffffffffffff1673ffffffffffffffffffffffffffffffffffffffff16815260200190815260200160002060008060ff16815260200190815260200160002060006101000a81548160ff021916908315150217905550610d918061008b6000396000f3fe608060405234801561001057600080fd5b506004361061007f576000357c01000000000000000000000000000000000000000000000000000000009004806344deb6f3146100845780635588d7c3146100d5578063886d0fc01461017c57806395a8c58d146101d45780639674a0ac1461023d578063b74866fb146102ab575b600080fd5b6100d36004803603604081101561009a57600080fd5b81019080803573ffffffffffffffffffffffffffffffffffffffff169060200190929190803560ff1690602001909291905050506102fc565b005b6100dd610584565b604051808060200180602001838103835285818151815260200191508051906020019060200280838360005b83811015610124578082015181840152602081019050610109565b50505050905001838103825284818151815260200191508051906020019060200280838360005b8381101561016657808201518184015260208101905061014b565b5050505090500194505050505060405180910390f35b6101be6004803603602081101561019257600080fd5b81019080803573ffffffffffffffffffffffffffffffffffffffff16906020019092919050505061077c565b6040518082815260200191505060405180910390f35b610223600480360360408110156101ea57600080fd5b81019080803573ffffffffffffffffffffffffffffffffffffffff169060200190929190803560ff169060200190929190505050610794565b604051808215151515815260200191505060405180910390f35b6102696004803603602081101561025357600080fd5b8101908080359060200190929190505050610888565b604051808273ffffffffffffffffffffffffffffffffffffffff1673ffffffffffffffffffffffffffffffffffffffff16815260200191505060405180910390f35b6102fa600480360360408110156102c157600080fd5b81019080803573ffffffffffffffffffffffffffffffffffffffff169060200190929190803560ff1690602001909291905050506108c6565b005b60006103083382610794565b151561037c576040517f08c379a000000000000000000000000000000000000000000000000000000000815260040180806020018281038252601a8152602001807f526f6c65733a204163636f756e74206e6f7420616c6c6f77656400000000000081525060200191505060405180910390fd5b82610388816000610794565b15801561039d575061039b816001610794565b155b15156103f4576040517f08c379a000000000000000000000000000000000000000000000000000000000815260040180806020018281038252602b815260200180610ceb602b913960400191505060405180910390fd5b60016000808673ffffffffffffffffffffffffffffffffffffffff1673ffffffffffffffffffffffffffffffffffffffff168152602001908152602001600020600085600281111561044257fe5b60ff1660ff16815260200190815260200160002060006101000a81548160ff0219169083151502179055506000600180549050905080600260008773ffffffffffffffffffffffffffffffffffffffff1673ffffffffffffffffffffffffffffffffffffffff1681526020019081526020016000208190555060018590806001815401808255809150509060018203906000526020600020016000909192909190916101000a81548173ffffffffffffffffffffffffffffffffffffffff021916908373ffffffffffffffffffffffffffffffffffffffff160217905550508473ffffffffffffffffffffffffffffffffffffffff167f0ed8a6a6a166243876472f7a8610b62c1a76c67911642d39ff34ead38105534f856040518082600281111561056a57fe5b60ff16815260200191505060405180910390a25050505050565b60608060606001805490506040519080825280602002602001820160405280156105bd5781602001602082028038833980820191505090505b50905060006002808111156105ce57fe5b60ff16905060008090505b6001805490508160ff1610156106e65760008090505b828160ff1610156106d85760008060018460ff1681548110151561060f57fe5b9060005260206000200160009054906101000a900473ffffffffffffffffffffffffffffffffffffffff1673ffffffffffffffffffffffffffffffffffffffff1673ffffffffffffffffffffffffffffffffffffffff16815260200190815260200160002060008260ff1660ff16815260200190815260200160002060009054906101000a900460ff16156106cb5780848360ff168151811015156106b057fe5b9060200190602002019060ff16908160ff16815250506106d8565b80806001019150506105ef565b5080806001019150506105d9565b506001828180548060200260200160405190810160405280929190818152602001828054801561076b57602002820191906000526020600020905b8160009054906101000a900473ffffffffffffffffffffffffffffffffffffffff1673ffffffffffffffffffffffffffffffffffffffff1681526020019060010190808311610721575b505050505091509350935050509091565b60026020528060005260406000206000915090505481565b60008073ffffffffffffffffffffffffffffffffffffffff168373ffffffffffffffffffffffffffffffffffffffff161415151561081d576040517f08c379a0000000000000000000000000000000000000000000000000000000008152600401808060200182810382526022815260200180610d166022913960400191505060405180910390fd5b6000808473ffffffffffffffffffffffffffffffffffffffff1673ffffffffffffffffffffffffffffffffffffffff16815260200190815260200160002060008360ff1660ff16815260200190815260200160002060009054906101000a900460ff16905092915050565b60018181548110151561089757fe5b906000526020600020016000915054906101000a900473ffffffffffffffffffffffffffffffffffffffff1681565b60006108d23382610794565b1515610946576040517f08c379a000000000000000000000000000000000000000000000000000000000815260040180806020018281038252601a8152602001807f526f6c65733a204163636f756e74206e6f7420616c6c6f77656400000000000081525060200191505060405180910390fd5b3373ffffffffffffffffffffffffffffffffffffffff168373ffffffffffffffffffffffffffffffffffffffff16141515156109cd576040517f08c379a000000000000000000000000000000000000000000000000000000000815260040180806020018281038252602e815260200180610d38602e913960400191505060405180910390fd5b6109e2838360028111156109dd57fe5b610794565b1515610a56576040517f08c379a00000000000000000000000000000000000000000000000000000000081526004018080602001828103825260208152602001807f526f6c65733a204163636f756e7420646f65736e2774206861766520726f6c6581525060200191505060405180910390fd5b60008060008573ffffffffffffffffffffffffffffffffffffffff1673ffffffffffffffffffffffffffffffffffffffff1681526020019081526020016000206000846002811115610aa457fe5b60ff1660ff16815260200190815260200160002060006101000a81548160ff0219169083151502179055506000600260008573ffffffffffffffffffffffffffffffffffffffff1673ffffffffffffffffffffffffffffffffffffffff16815260200190815260200160002054905060008190505b6001808054905003811015610c45576001808201815481101515610b3957fe5b9060005260206000200160009054906101000a900473ffffffffffffffffffffffffffffffffffffffff16600182815481101515610b7357fe5b9060005260206000200160006101000a81548173ffffffffffffffffffffffffffffffffffffffff021916908373ffffffffffffffffffffffffffffffffffffffff1602179055508060026000600184815481101515610bcf57fe5b9060005260206000200160009054906101000a900473ffffffffffffffffffffffffffffffffffffffff1673ffffffffffffffffffffffffffffffffffffffff1673ffffffffffffffffffffffffffffffffffffffff168152602001908152602001600020819055508080600101915050610b19565b5060018054801515610c5357fe5b6001900381819060005260206000200160006101000a81549073ffffffffffffffffffffffffffffffffffffffff021916905590558373ffffffffffffffffffffffffffffffffffffffff167f3824b64a1e23d936b458f4e31445c664d2bc9c14e842407917cbc100b0236a2f8460405180826002811115610cd157fe5b60ff16815260200191505060405180910390a25050505056fe526f6c65733a20416e206163636f756e742073686f756c642068617665206f6e6c79206f6e6520726f6c65526f6c65733a206163636f756e7420697320746865207a65726f2061646472657373526f6c65733a20556e61626c6520746f2072656d6f766520737570657261646d696e20726f6c6520697473656c66a165627a7a72305820ec694bd057bad37e9e3623d54839c08c334cc15e8626bde67cdc345ed3d1268c0029",
  "source": "//SPDX-License-Identifier: MIT\r\npragma solidity ^0.5.0;\r\n\r\n\r\n/**\r\n * @title RoleBasedAcl (Roles-based access control)\r\n * @dev Contract managing addressed role based access control\r\n */\r\n\r\ncontract RoleBasedAcl {\r\n    enum Roles {SUPER_ADMIN, NOTARY, LAST_INDEX} //SUPER_ADMIN: 0, NOTARY: 1, LAST: number value of enum\r\n    mapping(address => mapping(uint8 => bool)) roles; //address => Role(uint8) => bool\r\n    // For read all user role in contract\r\n    address[] public userAddress;\r\n    mapping(address => uint256) public userAddressIndexes;\r\n    // event add and remove role\r\n    event RoleAdded(address indexed account, Roles role);\r\n    event RoleRemoved(address indexed account, Roles role);\r\n\r\n    constructor() public {\r\n        roles[msg.sender][0] = true; // set deployer is 'superadmin'\r\n    }\r\n\r\n    /**\r\n     * @notice Assign a role to address\r\n     * @dev require msg.sender is superadmin && account is empty role\r\n     * @param _account address\r\n     * @param _role the name of the role\r\n     */\r\n    function addRole(address _account, Roles _role)\r\n        external\r\n        onlyRole(0)\r\n        emptyRole(_account)\r\n    {\r\n        roles[_account][uint8(_role)] = true;\r\n        uint256 id = userAddress.length;\r\n        userAddressIndexes[_account] = id;\r\n        userAddress.push(_account);\r\n        emit RoleAdded(_account, _role);\r\n    }\r\n\r\n    /**\r\n     * @notice remove a role from an address\r\n     * @dev require msg.sender = superadmin\r\n     * @param _account address\r\n     * @param _role the name of the role\r\n     */\r\n    function removeRole(address _account, Roles _role) external onlyRole(0) {\r\n        require(\r\n            _account != msg.sender,\r\n            \"Roles: Unable to remove superadmin role itself\"\r\n        );\r\n        require(\r\n            hasRole(_account, uint8(_role)),\r\n            \"Roles: Account doesn't have role\"\r\n        );\r\n        roles[_account][uint8(_role)] = false;\r\n        uint256 id = userAddressIndexes[_account];\r\n        for (uint256 i = id; i < userAddress.length - 1; i++) {\r\n            userAddress[i] = userAddress[i + 1];\r\n            userAddressIndexes[userAddress[i]] = i;\r\n        }\r\n        userAddress.pop();\r\n        emit RoleRemoved(_account, _role);\r\n    }\r\n\r\n    /**\r\n     * @dev determine if addr has role\r\n     * @param _account address\r\n     * @param _role the name of the role\r\n     * @return bool\r\n     */\r\n    function hasRole(address _account, uint8 _role) public view returns (bool) {\r\n        require(_account != address(0), \"Roles: account is the zero address\");\r\n        return roles[_account][_role];\r\n    }\r\n\r\n    /**\r\n     * @dev modifier to scope access to a single role (uses msg.sender as addr)\r\n     * @param _role the name of the role\r\n     */\r\n    modifier onlyRole(uint8 _role) {\r\n        require(hasRole(msg.sender, _role), \"Roles: Account not allowed\");\r\n        _;\r\n    }\r\n\r\n    modifier emptyRole(address _address) {\r\n        require(\r\n            !hasRole(_address, 0) && !hasRole(_address, 1),\r\n            \"Roles: An account should have only one role\"\r\n        );\r\n        _;\r\n    }\r\n\r\n    /**\r\n     * @notice Get list user and role\r\n     * @return address[], uint8[]\r\n     */\r\n    function getAllAddressAndRole()\r\n        external\r\n        view\r\n        returns (address[] memory, uint8[] memory)\r\n    {\r\n        uint8[] memory listRole = new uint8[](userAddress.length);\r\n        uint256 amountRoles = uint8(Roles.LAST_INDEX);\r\n        for (uint8 i = 0; i < userAddress.length; i++) {\r\n            for (uint8 j = 0; j < amountRoles; j++) {\r\n                // number roles 2 = {SUPER_ADMIN, NOTARY}\r\n                if (roles[userAddress[i]][j]) {\r\n                    listRole[i] = j;\r\n                    break;\r\n                }\r\n            }\r\n        }\r\n        return (userAddress, listRole);\r\n    }\r\n}\r\n",
  "sourcePath": "C:\\Users\\BAP\\Desktop\\land-trade\\contracts\\RoleBasedAcl.sol",
  "compiler": {
    "name": "solc",
    "version": "0.5.3+commit.10d17f24.Emscripten.clang"
  },
  "schemaVersion": "3.4.10",
  "updatedAt": "2022-10-14T09:02:49.940Z",
  "networkType": "ethereum",
  "devdoc": {
    "details": "Contract managing addressed role based access control\r",
    "methods": {
      "addRole(address,uint8)": {
        "details": "require msg.sender is superadmin && account is empty role\r",
        "params": {
          "_account": "address\r",
          "_role": "the name of the role\r"
        }
      },
      "getAllAddressAndRole()": {
        "return": "address[], uint8[]\r"
      },
      "hasRole(address,uint8)": {
        "details": "determine if addr has role\r",
        "params": {
          "_account": "address\r",
          "_role": "the name of the role\r"
        },
        "return": "bool\r"
      },
      "removeRole(address,uint8)": {
        "details": "require msg.sender = superadmin\r",
        "params": {
          "_account": "address\r",
          "_role": "the name of the role\r"
        }
      }
    },
    "title": "RoleBasedAcl (Roles-based access control)\r"
  },
  "userdoc": {
    "methods": {
      "addRole(address,uint8)": {
        "notice": "Assign a role to address\r"
      },
      "getAllAddressAndRole()": {
        "notice": "Get list user and role\r"
      },
      "removeRole(address,uint8)": {
        "notice": "remove a role from an address\r"
      }
    }
  }
}