{
  "contractName": "Transaction",
  "abi": [
    {
      "constant": true,
      "inputs": [
        {
          "name": "",
          "type": "uint256"
        }
      ],
      "name": "idToTransaction",
      "outputs": [
        {
          "name": "idCertificate",
          "type": "uint256"
        },
        {
          "name": "depositPrice",
          "type": "uint256"
        },
        {
          "name": "transferPrice",
          "type": "uint256"
        },
        {
          "name": "timeStart",
          "type": "uint256"
        },
        {
          "name": "timeEnd",
          "type": "uint256"
        }
      ],
      "payable": false,
      "stateMutability": "view",
      "type": "function"
    },
    {
      "constant": true,
      "inputs": [],
      "name": "id",
      "outputs": [
        {
          "name": "",
          "type": "uint256"
        }
      ],
      "payable": false,
      "stateMutability": "view",
      "type": "function"
    },
    {
      "constant": true,
      "inputs": [
        {
          "name": "",
          "type": "uint256"
        }
      ],
      "name": "idToState",
      "outputs": [
        {
          "name": "",
          "type": "uint8"
        }
      ],
      "payable": false,
      "stateMutability": "view",
      "type": "function"
    },
    {
      "inputs": [
        {
          "name": "_realEstateContractAddress",
          "type": "address"
        }
      ],
      "payable": false,
      "stateMutability": "nonpayable",
      "type": "constructor"
    },
    {
      "anonymous": false,
      "inputs": [
        {
          "indexed": false,
          "name": "buyers",
          "type": "address[]"
        },
        {
          "indexed": false,
          "name": "sellers",
          "type": "address[]"
        },
        {
          "indexed": false,
          "name": "idTransaction",
          "type": "uint256"
        },
        {
          "indexed": false,
          "name": "idCertificate",
          "type": "uint256"
        },
        {
          "indexed": false,
          "name": "depositPrice",
          "type": "uint256"
        },
        {
          "indexed": false,
          "name": "transferPrice",
          "type": "uint256"
        },
        {
          "indexed": false,
          "name": "timeStart",
          "type": "uint256"
        },
        {
          "indexed": false,
          "name": "timeEnd",
          "type": "uint256"
        }
      ],
      "name": "TransactionCreated",
      "type": "event"
    },
    {
      "anonymous": false,
      "inputs": [
        {
          "indexed": false,
          "name": "idTransaction",
          "type": "uint256"
        }
      ],
      "name": "DepositSigned",
      "type": "event"
    },
    {
      "anonymous": false,
      "inputs": [
        {
          "indexed": false,
          "name": "idTransaction",
          "type": "uint256"
        },
        {
          "indexed": false,
          "name": "state",
          "type": "uint8"
        }
      ],
      "name": "TransactionCanceled",
      "type": "event"
    },
    {
      "anonymous": false,
      "inputs": [
        {
          "indexed": false,
          "name": "idTransaction",
          "type": "uint256"
        }
      ],
      "name": "Payment",
      "type": "event"
    },
    {
      "anonymous": false,
      "inputs": [
        {
          "indexed": false,
          "name": "idTransaction",
          "type": "uint256"
        }
      ],
      "name": "TransactionSuccess",
      "type": "event"
    },
    {
      "constant": false,
      "inputs": [
        {
          "name": "_realEstateContractAddress",
          "type": "address"
        }
      ],
      "name": "setRealEstateContract",
      "outputs": [],
      "payable": false,
      "stateMutability": "nonpayable",
      "type": "function"
    },
    {
      "constant": false,
      "inputs": [
        {
          "name": "_buyers",
          "type": "address[]"
        },
        {
          "name": "_idCertificate",
          "type": "uint256"
        },
        {
          "name": "_depositPrice",
          "type": "uint256"
        },
        {
          "name": "_transferPrice",
          "type": "uint256"
        },
        {
          "name": "_depositTime",
          "type": "uint256"
        }
      ],
      "name": "createTransaction",
      "outputs": [],
      "payable": true,
      "stateMutability": "payable",
      "type": "function"
    },
    {
      "constant": false,
      "inputs": [
        {
          "name": "_idTransaction",
          "type": "uint256"
        }
      ],
      "name": "acceptTransaction",
      "outputs": [],
      "payable": false,
      "stateMutability": "nonpayable",
      "type": "function"
    },
    {
      "constant": false,
      "inputs": [
        {
          "name": "_idTransaction",
          "type": "uint256"
        }
      ],
      "name": "buyerCancelTransaction",
      "outputs": [],
      "payable": false,
      "stateMutability": "nonpayable",
      "type": "function"
    },
    {
      "constant": false,
      "inputs": [
        {
          "name": "_idTransaction",
          "type": "uint256"
        }
      ],
      "name": "sellerCancelTransaction",
      "outputs": [],
      "payable": true,
      "stateMutability": "payable",
      "type": "function"
    },
    {
      "constant": false,
      "inputs": [
        {
          "name": "_idTransaction",
          "type": "uint256"
        }
      ],
      "name": "cancelTransaction",
      "outputs": [],
      "payable": true,
      "stateMutability": "payable",
      "type": "function"
    },
    {
      "constant": false,
      "inputs": [
        {
          "name": "_idTransaction",
          "type": "uint256"
        }
      ],
      "name": "payment",
      "outputs": [],
      "payable": true,
      "stateMutability": "payable",
      "type": "function"
    },
    {
      "constant": false,
      "inputs": [
        {
          "name": "_idTransaction",
          "type": "uint256"
        }
      ],
      "name": "confirmTransaction",
      "outputs": [],
      "payable": true,
      "stateMutability": "payable",
      "type": "function"
    },
    {
      "constant": true,
      "inputs": [
        {
          "name": "_idTransaction",
          "type": "uint256"
        }
      ],
      "name": "getTransaction",
      "outputs": [
        {
          "name": "",
          "type": "address[]"
        },
        {
          "name": "",
          "type": "address[]"
        },
        {
          "name": "",
          "type": "uint256"
        },
        {
          "name": "",
          "type": "uint256"
        },
        {
          "name": "",
          "type": "uint256"
        },
        {
          "name": "",
          "type": "uint256"
        },
        {
          "name": "",
          "type": "uint256"
        }
      ],
      "payable": false,
      "stateMutability": "view",
      "type": "function"
    }
  ],
  "bytecode": "0x608060405234801561001057600080fd5b50604051602080613be88339810180604052602081101561003057600080fd5b8101908080519060200190929190505050806000806101000a81548173ffffffffffffffffffffffffffffffffffffffff021916908373ffffffffffffffffffffffffffffffffffffffff16021790555050613b57806100916000396000f3fe6080604052600436106100c4576000357c0100000000000000000000000000000000000000000000000000000000900480638dd83aa5116100815780638dd83aa5146103a657806393381071146103d4578063a9dd689514610425578063af640d0f14610460578063b1667ee11461048b578063c01a8c84146104e8576100c4565b80633380c0d8146100c957806333ea3dc8146100f75780638047e348146101f25780638b3c99e31461025d5780638c534ec11461028b5780638c80a5e81461036b575b600080fd5b6100f5600480360360208110156100df57600080fd5b8101908080359060200190929190505050610516565b005b34801561010357600080fd5b506101306004803603602081101561011a57600080fd5b8101908080359060200190929190505050610fd6565b60405180806020018060200188815260200187815260200186815260200185815260200184815260200183810383528a818151815260200191508051906020019060200280838360005b8381101561019557808201518184015260208101905061017a565b50505050905001838103825289818151815260200191508051906020019060200280838360005b838110156101d75780820151818401526020810190506101bc565b50505050905001995050505050505050505060405180910390f35b3480156101fe57600080fd5b5061022b6004803603602081101561021557600080fd5b810190808035906020019092919050505061119b565b604051808681526020018581526020018481526020018381526020018281526020019550505050505060405180910390f35b6102896004803603602081101561027357600080fd5b81019080803590602001909291905050506111d1565b005b610369600480360360a08110156102a157600080fd5b81019080803590602001906401000000008111156102be57600080fd5b8201836020820111156102d057600080fd5b803590602001918460208302840111640100000000831117156102f257600080fd5b919080806020026020016040519081016040528093929190818152602001838360200280828437600081840152601f19601f82011690508083019250505050505050919291929080359060200190929190803590602001909291908035906020019092919080359060200190929190505050611621565b005b34801561037757600080fd5b506103a46004803603602081101561038e57600080fd5b8101908080359060200190929190505050611b41565b005b6103d2600480360360208110156103bc57600080fd5b81019080803590602001909291905050506121ca565b005b3480156103e057600080fd5b50610423600480360360208110156103f757600080fd5b81019080803573ffffffffffffffffffffffffffffffffffffffff169060200190929190505050612a80565b005b34801561043157600080fd5b5061045e6004803603602081101561044857600080fd5b8101908080359060200190929190505050612ac3565b005b34801561046c57600080fd5b50610475612f59565b6040518082815260200191505060405180910390f35b34801561049757600080fd5b506104c4600480360360208110156104ae57600080fd5b8101908080359060200190929190505050612f5f565b604051808260088111156104d457fe5b60ff16815260200191505060405180910390f35b610514600480360360208110156104fe57600080fd5b8101908080359060200190929190505050612f7f565b005b806000600881111561052457fe5b6003600083815260200190815260200160002060009054906101000a900460ff16600881111561055057fe5b148061059257506003600881111561056457fe5b6003600083815260200190815260200160002060009054906101000a900460ff16600881111561059057fe5b145b806105d35750600660088111156105a557fe5b6003600083815260200190815260200160002060009054906101000a900460ff1660088111156105d157fe5b145b151561062a576040517f08c379a000000000000000000000000000000000000000000000000000000000815260040180806020018281038252602e815260200180613ac8602e913960400191505060405180910390fd5b61063261364e565b6004600084815260200190815260200160002060e06040519081016040529081600082018054806020026020016040519081016040528092919081815260200182805480156106d657602002820191906000526020600020905b8160009054906101000a900473ffffffffffffffffffffffffffffffffffffffff1673ffffffffffffffffffffffffffffffffffffffff168152602001906001019080831161068c575b505050505081526020016001820180548060200260200160405190810160405280929190818152602001828054801561076457602002820191906000526020600020905b8160009054906101000a900473ffffffffffffffffffffffffffffffffffffffff1673ffffffffffffffffffffffffffffffffffffffff168152602001906001019080831161071a575b50505050508152602001600282015481526020016003820154815260200160048201548152602001600582015481526020016006820154815250509050806000015160008151811015156107b457fe5b9060200190602002015173ffffffffffffffffffffffffffffffffffffffff163373ffffffffffffffffffffffffffffffffffffffff161415610a3457600060088111156107fe57fe5b6003600085815260200190815260200160002060009054906101000a900460ff16600881111561082a57fe5b14156108b5573373ffffffffffffffffffffffffffffffffffffffff166108fc82606001519081150290604051600060405180830381858888f1935050505015801561087a573d6000803e3d6000fd5b5060016003600085815260200190815260200160002060006101000a81548160ff021916908360088111156108ab57fe5b0217905550610a2f565b600360088111156108c257fe5b6003600085815260200190815260200160002060009054906101000a900460ff1660088111156108ee57fe5b141561092e5760046003600085815260200190815260200160002060006101000a81548160ff0219169083600881111561092457fe5b0217905550610a2e565b6006600881111561093b57fe5b6003600085815260200190815260200160002060009054906101000a900460ff16600881111561096757fe5b1415610a2d573373ffffffffffffffffffffffffffffffffffffffff166108fc6109cb6109a260c885608001516135c190919063ffffffff16565b6109bd856060015186608001516135dc90919063ffffffff16565b6135f590919063ffffffff16565b9081150290604051600060405180830381858888f193505050501580156109f6573d6000803e3d6000fd5b5060046003600085815260200190815260200160002060006101000a81548160ff02191690836008811115610a2757fe5b02179055505b5b5b610eb8565b80602001516000815181101515610a4757fe5b9060200190602002015173ffffffffffffffffffffffffffffffffffffffff163373ffffffffffffffffffffffffffffffffffffffff161415610e665760006008811115610a9157fe5b6003600085815260200190815260200160002060009054906101000a900460ff166008811115610abd57fe5b1415610b6a57600081600001516000815181101515610ad857fe5b9060200190602002015190508073ffffffffffffffffffffffffffffffffffffffff166108fc83606001519081150290604051600060405180830381858888f19350505050158015610b2e573d6000803e3d6000fd5b5060026003600086815260200190815260200160002060006101000a81548160ff02191690836008811115610b5f57fe5b021790555050610e61565b60036008811115610b7757fe5b6003600085815260200190815260200160002060009054906101000a900460ff166008811115610ba357fe5b1415610cc4576000610bc36002836060015161361390919063ffffffff16565b9050803410151515610c20576040517f08c379a000000000000000000000000000000000000000000000000000000000815260040180806020018281038252603d8152602001806138d3603d913960400191505060405180910390fd5b600082600001516000815181101515610c3557fe5b9060200190602002015190508073ffffffffffffffffffffffffffffffffffffffff166108fc839081150290604051600060405180830381858888f19350505050158015610c87573d6000803e3d6000fd5b5060046003600087815260200190815260200160002060006101000a81548160ff02191690836008811115610cb857fe5b02179055505050610e60565b60066008811115610cd157fe5b6003600085815260200190815260200160002060009054906101000a900460ff166008811115610cfd57fe5b1415610e5f576000610d1d6002836060015161361390919063ffffffff16565b90506000610d61610d3c60c885608001516135c190919063ffffffff16565b610d538486608001516135f590919063ffffffff16565b6135f590919063ffffffff16565b9050813410151515610dbe576040517f08c379a00000000000000000000000000000000000000000000000000000000081526004018080602001828103825260428152602001806139a96042913960600191505060405180910390fd5b600083600001516000815181101515610dd357fe5b9060200190602002015190508073ffffffffffffffffffffffffffffffffffffffff166108fc839081150290604051600060405180830381858888f19350505050158015610e25573d6000803e3d6000fd5b5060076003600088815260200190815260200160002060006101000a81548160ff02191690836008811115610e5657fe5b02179055505050505b5b5b610eb7565b6040517f08c379a0000000000000000000000000000000000000000000000000000000008152600401808060200182810382526029815260200180613a0d6029913960400191505060405180910390fd5b5b6000809054906101000a900473ffffffffffffffffffffffffffffffffffffffff1673ffffffffffffffffffffffffffffffffffffffff1663ebb0f0a982604001516040518263ffffffff167c010000000000000000000000000000000000000000000000000000000002815260040180828152602001915050600060405180830381600087803b158015610f4c57600080fd5b505af1158015610f60573d6000803e3d6000fd5b505050507f25c1c8d9d47e7ff6f5563a94ae2f009d1d4033e5d2c3453208602186310b741e836003600086815260200190815260200160002060009054906101000a900460ff1660405180838152602001826008811115610fbd57fe5b60ff1681526020019250505060405180910390a1505050565b6060806000806000806000610fe961364e565b600460008a815260200190815260200160002060e060405190810160405290816000820180548060200260200160405190810160405280929190818152602001828054801561108d57602002820191906000526020600020905b8160009054906101000a900473ffffffffffffffffffffffffffffffffffffffff1673ffffffffffffffffffffffffffffffffffffffff1681526020019060010190808311611043575b505050505081526020016001820180548060200260200160405190810160405280929190818152602001828054801561111b57602002820191906000526020600020905b8160009054906101000a900473ffffffffffffffffffffffffffffffffffffffff1673ffffffffffffffffffffffffffffffffffffffff16815260200190600101908083116110d1575b50505050508152602001600282015481526020016003820154815260200160048201548152602001600582015481526020016006820154815250509050806000015181602001518260400151836060015184608001518560a001518660c00151869650859550975097509750975097509750975050919395979092949650565b60046020528060005260406000206000915090508060020154908060030154908060040154908060050154908060060154905085565b8060038060088111156111e057fe5b6003600084815260200190815260200160002060009054906101000a900460ff16600881111561120c57fe5b141515611281576040517f08c379a00000000000000000000000000000000000000000000000000000000081526004018080602001828103825260198152602001807f4f6e6c7953746174653a20526571756972652073746174652e0000000000000081525060200191505060405180910390fd5b61128961364e565b6004600085815260200190815260200160002060e060405190810160405290816000820180548060200260200160405190810160405280929190818152602001828054801561132d57602002820191906000526020600020905b8160009054906101000a900473ffffffffffffffffffffffffffffffffffffffff1673ffffffffffffffffffffffffffffffffffffffff16815260200190600101908083116112e3575b50505050508152602001600182018054806020026020016040519081016040528092919081815260200182805480156113bb57602002820191906000526020600020905b8160009054906101000a900473ffffffffffffffffffffffffffffffffffffffff1673ffffffffffffffffffffffffffffffffffffffff1681526020019060010190808311611371575b505050505081526020016002820154815260200160038201548152602001600482015481526020016005820154815260200160068201548152505090508060c001514211151515611457576040517f08c379a00000000000000000000000000000000000000000000000000000000081526004018080602001828103825260218152602001806138b26021913960400191505060405180910390fd5b60008160000151600081518110151561146c57fe5b9060200190602002015190508073ffffffffffffffffffffffffffffffffffffffff163373ffffffffffffffffffffffffffffffffffffffff161415156114fe576040517f08c379a0000000000000000000000000000000000000000000000000000000008152600401808060200182810382526027815260200180613a716027913960400191505060405180910390fd5b600061151b836060015184608001516135dc90919063ffffffff16565b9050600061153760c885608001516135c190919063ffffffff16565b9050600061154e82846135f590919063ffffffff16565b90508034101515156115ab576040517f08c379a0000000000000000000000000000000000000000000000000000000008152600401808060200182810382526030815260200180613a986030913960400191505060405180910390fd5b6006600360008a815260200190815260200160002060006101000a81548160ff021916908360088111156115db57fe5b02179055507fd73298c59e2f8823f5313441b46ced5bddf204a2d4d72bdd904a6d6785e51ae9886040518082815260200191505060405180910390a15050505050505050565b60016000809054906101000a900473ffffffffffffffffffffffffffffffffffffffff1673ffffffffffffffffffffffffffffffffffffffff16631a0ae94f866040518263ffffffff167c01000000000000000000000000000000000000000000000000000000000281526004018082815260200191505060206040518083038186803b1580156116b157600080fd5b505afa1580156116c5573d6000803e3d6000fd5b505050506040513d60208110156116db57600080fd5b810190808051906020019092919050505060ff16141515611747576040517f08c379a000000000000000000000000000000000000000000000000000000000815260040180806020018281038252603b815260200180613942603b913960400191505060405180910390fd5b8234101515156117a2576040517f08c379a000000000000000000000000000000000000000000000000000000000815260040180806020018281038252603b815260200180613a36603b913960400191505060405180910390fd5b8183111515156117fd576040517f08c379a00000000000000000000000000000000000000000000000000000000081526004018080602001828103825260448152602001806137f46044913960600191505060405180910390fd5b60606000809054906101000a900473ffffffffffffffffffffffffffffffffffffffff1673ffffffffffffffffffffffffffffffffffffffff1663eacfd6ed866040518263ffffffff167c01000000000000000000000000000000000000000000000000000000000281526004018082815260200191505060006040518083038186803b15801561188d57600080fd5b505afa1580156118a1573d6000803e3d6000fd5b505050506040513d6000823e3d601f19601f8201168201806040525060208110156118cb57600080fd5b8101908080516401000000008111156118e357600080fd5b828101905060208101848111156118f957600080fd5b815185602082028301116401000000008211171561191657600080fd5b505092919050505090506000603c806018850202024201905061193761364e565b60e060405190810160405280898152602001848152602001888152602001878152602001868152602001428152602001838152509050611982600180546135f590919063ffffffff16565b6001819055508060046000600154815260200190815260200160002060008201518160000190805190602001906119ba92919061368c565b5060208201518160010190805190602001906119d792919061368c565b5060408201518160020155606082015181600301556080820151816004015560a0820151816005015560c08201518160060155905050600060036000600154815260200190815260200160002060006101000a81548160ff02191690836008811115611a3f57fe5b02179055507f20a965e147a65b545cb2567fcec5711955f037ffe84f36b380695f11ceaca02488846001548a8a8a428960405180806020018060200189815260200188815260200187815260200186815260200185815260200184815260200183810383528b818151815260200191508051906020019060200280838360005b83811015611ada578082015181840152602081019050611abf565b5050505090500183810382528a818151815260200191508051906020019060200280838360005b83811015611b1c578082015181840152602081019050611b01565b505050509050019a505050505050505050505060405180910390a15050505050505050565b8060006008811115611b4f57fe5b6003600083815260200190815260200160002060009054906101000a900460ff166008811115611b7b57fe5b1480611bbd575060036008811115611b8f57fe5b6003600083815260200190815260200160002060009054906101000a900460ff166008811115611bbb57fe5b145b80611bfe575060066008811115611bd057fe5b6003600083815260200190815260200160002060009054906101000a900460ff166008811115611bfc57fe5b145b1515611c55576040517f08c379a000000000000000000000000000000000000000000000000000000000815260040180806020018281038252602e815260200180613ac8602e913960400191505060405180910390fd5b611c5d61364e565b6004600084815260200190815260200160002060e0604051908101604052908160008201805480602002602001604051908101604052809291908181526020018280548015611d0157602002820191906000526020600020905b8160009054906101000a900473ffffffffffffffffffffffffffffffffffffffff1673ffffffffffffffffffffffffffffffffffffffff1681526020019060010190808311611cb7575b5050505050815260200160018201805480602002602001604051908101604052809291908181526020018280548015611d8f57602002820191906000526020600020905b8160009054906101000a900473ffffffffffffffffffffffffffffffffffffffff1673ffffffffffffffffffffffffffffffffffffffff1681526020019060010190808311611d45575b5050505050815260200160028201548152602001600382015481526020016004820154815260200160058201548152602001600682015481525050905080600001516000815181101515611ddf57fe5b9060200190602002015173ffffffffffffffffffffffffffffffffffffffff163373ffffffffffffffffffffffffffffffffffffffff16141515611e6e576040517f08c379a000000000000000000000000000000000000000000000000000000000815260040180806020018281038252603581526020018061387d6035913960400191505060405180910390fd5b60006008811115611e7b57fe5b6003600085815260200190815260200160002060009054906101000a900460ff166008811115611ea757fe5b1415611f32573373ffffffffffffffffffffffffffffffffffffffff166108fc82606001519081150290604051600060405180830381858888f19350505050158015611ef7573d6000803e3d6000fd5b5060016003600085815260200190815260200160002060006101000a81548160ff02191690836008811115611f2857fe5b02179055506120ac565b60036008811115611f3f57fe5b6003600085815260200190815260200160002060009054906101000a900460ff166008811115611f6b57fe5b1415611fab5760046003600085815260200190815260200160002060006101000a81548160ff02191690836008811115611fa157fe5b02179055506120ab565b60066008811115611fb857fe5b6003600085815260200190815260200160002060009054906101000a900460ff166008811115611fe457fe5b14156120aa573373ffffffffffffffffffffffffffffffffffffffff166108fc61204861201f60c885608001516135c190919063ffffffff16565b61203a856060015186608001516135dc90919063ffffffff16565b6135f590919063ffffffff16565b9081150290604051600060405180830381858888f19350505050158015612073573d6000803e3d6000fd5b5060046003600085815260200190815260200160002060006101000a81548160ff021916908360088111156120a457fe5b02179055505b5b5b6000809054906101000a900473ffffffffffffffffffffffffffffffffffffffff1673ffffffffffffffffffffffffffffffffffffffff1663ebb0f0a982604001516040518263ffffffff167c010000000000000000000000000000000000000000000000000000000002815260040180828152602001915050600060405180830381600087803b15801561214057600080fd5b505af1158015612154573d6000803e3d6000fd5b505050507f25c1c8d9d47e7ff6f5563a94ae2f009d1d4033e5d2c3453208602186310b741e836003600086815260200190815260200160002060009054906101000a900460ff16604051808381526020018260088111156121b157fe5b60ff1681526020019250505060405180910390a1505050565b80600060088111156121d857fe5b6003600083815260200190815260200160002060009054906101000a900460ff16600881111561220457fe5b148061224657506003600881111561221857fe5b6003600083815260200190815260200160002060009054906101000a900460ff16600881111561224457fe5b145b8061228757506006600881111561225957fe5b6003600083815260200190815260200160002060009054906101000a900460ff16600881111561228557fe5b145b15156122de576040517f08c379a000000000000000000000000000000000000000000000000000000000815260040180806020018281038252602e815260200180613ac8602e913960400191505060405180910390fd5b6122e661364e565b6004600084815260200190815260200160002060e060405190810160405290816000820180548060200260200160405190810160405280929190818152602001828054801561238a57602002820191906000526020600020905b8160009054906101000a900473ffffffffffffffffffffffffffffffffffffffff1673ffffffffffffffffffffffffffffffffffffffff1681526020019060010190808311612340575b505050505081526020016001820180548060200260200160405190810160405280929190818152602001828054801561241857602002820191906000526020600020905b8160009054906101000a900473ffffffffffffffffffffffffffffffffffffffff1673ffffffffffffffffffffffffffffffffffffffff16815260200190600101908083116123ce575b505050505081526020016002820154815260200160038201548152602001600482015481526020016005820154815260200160068201548152505090508060200151600081518110151561246857fe5b9060200190602002015173ffffffffffffffffffffffffffffffffffffffff163373ffffffffffffffffffffffffffffffffffffffff161415156124f7576040517f08c379a00000000000000000000000000000000000000000000000000000000081526004018080602001828103825260378152602001806137bd6037913960400191505060405180910390fd5b6000600881111561250457fe5b6003600085815260200190815260200160002060009054906101000a900460ff16600881111561253057fe5b14156125dd5760008160000151600081518110151561254b57fe5b9060200190602002015190508073ffffffffffffffffffffffffffffffffffffffff166108fc83606001519081150290604051600060405180830381858888f193505050501580156125a1573d6000803e3d6000fd5b5060026003600086815260200190815260200160002060006101000a81548160ff021916908360088111156125d257fe5b021790555050612962565b600360088111156125ea57fe5b6003600085815260200190815260200160002060009054906101000a900460ff16600881111561261657fe5b14156127375760006126366002836060015161361390919063ffffffff16565b9050803410151515612693576040517f08c379a00000000000000000000000000000000000000000000000000000000081526004018080602001828103825260458152602001806138386045913960600191505060405180910390fd5b6000826000015160008151811015156126a857fe5b9060200190602002015190508073ffffffffffffffffffffffffffffffffffffffff166108fc839081150290604051600060405180830381858888f193505050501580156126fa573d6000803e3d6000fd5b5060056003600087815260200190815260200160002060006101000a81548160ff0219169083600881111561272b57fe5b02179055505050612961565b6006600881111561274457fe5b6003600085815260200190815260200160002060009054906101000a900460ff16600881111561277057fe5b14156129605760006127906002836060015161361390919063ffffffff16565b905060006127af836060015184608001516135dc90919063ffffffff16565b905060006127ef6127ce60c886608001516135c190919063ffffffff16565b6127e185856135f590919063ffffffff16565b6135f590919063ffffffff16565b905082341015151561284c576040517f08c379a00000000000000000000000000000000000000000000000000000000081526004018080602001828103825260458152602001806138386045913960600191505060405180910390fd5b803073ffffffffffffffffffffffffffffffffffffffff1631101515156128be576040517f08c379a00000000000000000000000000000000000000000000000000000000081526004018080602001828103825260228152602001806139eb6022913960400191505060405180910390fd5b6000846000015160008151811015156128d357fe5b9060200190602002015190508073ffffffffffffffffffffffffffffffffffffffff166108fc839081150290604051600060405180830381858888f19350505050158015612925573d6000803e3d6000fd5b5060076003600089815260200190815260200160002060006101000a81548160ff0219169083600881111561295657fe5b0217905550505050505b5b5b6000809054906101000a900473ffffffffffffffffffffffffffffffffffffffff1673ffffffffffffffffffffffffffffffffffffffff1663ebb0f0a982604001516040518263ffffffff167c010000000000000000000000000000000000000000000000000000000002815260040180828152602001915050600060405180830381600087803b1580156129f657600080fd5b505af1158015612a0a573d6000803e3d6000fd5b505050507f25c1c8d9d47e7ff6f5563a94ae2f009d1d4033e5d2c3453208602186310b741e836003600086815260200190815260200160002060009054906101000a900460ff1660405180838152602001826008811115612a6757fe5b60ff1681526020019250505060405180910390a1505050565b806000806101000a81548173ffffffffffffffffffffffffffffffffffffffff021916908373ffffffffffffffffffffffffffffffffffffffff16021790555050565b806000806008811115612ad257fe5b6003600084815260200190815260200160002060009054906101000a900460ff166008811115612afe57fe5b141515612b73576040517f08c379a00000000000000000000000000000000000000000000000000000000081526004018080602001828103825260198152602001807f4f6e6c7953746174653a20526571756972652073746174652e0000000000000081525060200191505060405180910390fd5b612b7b61364e565b6004600085815260200190815260200160002060e0604051908101604052908160008201805480602002602001604051908101604052809291908181526020018280548015612c1f57602002820191906000526020600020905b8160009054906101000a900473ffffffffffffffffffffffffffffffffffffffff1673ffffffffffffffffffffffffffffffffffffffff1681526020019060010190808311612bd5575b5050505050815260200160018201805480602002602001604051908101604052809291908181526020018280548015612cad57602002820191906000526020600020905b8160009054906101000a900473ffffffffffffffffffffffffffffffffffffffff1673ffffffffffffffffffffffffffffffffffffffff1681526020019060010190808311612c63575b505050505081526020016002820154815260200160038201548152602001600482015481526020016005820154815260200160068201548152505090508060c001514211151515612d49576040517f08c379a000000000000000000000000000000000000000000000000000000000815260040180806020018281038252602a81526020018061375a602a913960400191505060405180910390fd5b600081602001516000815181101515612d5e57fe5b9060200190602002015190508073ffffffffffffffffffffffffffffffffffffffff163373ffffffffffffffffffffffffffffffffffffffff16141515612df0576040517f08c379a00000000000000000000000000000000000000000000000000000000081526004018080602001828103825260328152602001806139106032913960400191505060405180910390fd5b3373ffffffffffffffffffffffffffffffffffffffff166108fc83606001519081150290604051600060405180830381858888f19350505050158015612e3a573d6000803e3d6000fd5b50600380600087815260200190815260200160002060006101000a81548160ff02191690836008811115612e6a57fe5b02179055506000809054906101000a900473ffffffffffffffffffffffffffffffffffffffff1673ffffffffffffffffffffffffffffffffffffffff16632861ebd283604001516040518263ffffffff167c010000000000000000000000000000000000000000000000000000000002815260040180828152602001915050600060405180830381600087803b158015612f0357600080fd5b505af1158015612f17573d6000803e3d6000fd5b505050507f388c8a92bccfa98c6f31aaf88a64dd0582b1775314bb3f73c1451357d7c79f4a856040518082815260200191505060405180910390a15050505050565b60015481565b60036020528060005260406000206000915054906101000a900460ff1681565b806006806008811115612f8e57fe5b6003600084815260200190815260200160002060009054906101000a900460ff166008811115612fba57fe5b14151561302f576040517f08c379a00000000000000000000000000000000000000000000000000000000081526004018080602001828103825260198152602001807f4f6e6c7953746174653a20526571756972652073746174652e0000000000000081525060200191505060405180910390fd5b61303761364e565b6004600085815260200190815260200160002060e06040519081016040529081600082018054806020026020016040519081016040528092919081815260200182805480156130db57602002820191906000526020600020905b8160009054906101000a900473ffffffffffffffffffffffffffffffffffffffff1673ffffffffffffffffffffffffffffffffffffffff1681526020019060010190808311613091575b505050505081526020016001820180548060200260200160405190810160405280929190818152602001828054801561316957602002820191906000526020600020905b8160009054906101000a900473ffffffffffffffffffffffffffffffffffffffff1673ffffffffffffffffffffffffffffffffffffffff168152602001906001019080831161311f575b505050505081526020016002820154815260200160038201548152602001600482015481526020016005820154815260200160068201548152505090508060c001514211151515613205576040517f08c379a000000000000000000000000000000000000000000000000000000000815260040180806020018281038252602c81526020018061397d602c913960400191505060405180910390fd5b60008160200151600081518110151561321a57fe5b9060200190602002015190508073ffffffffffffffffffffffffffffffffffffffff163373ffffffffffffffffffffffffffffffffffffffff161415156132ac576040517f08c379a0000000000000000000000000000000000000000000000000000000008152600401808060200182810382526036815260200180613af66036913960400191505060405180910390fd5b60006132c6603284608001516135c190919063ffffffff16565b905060006132e5846060015185608001516135dc90919063ffffffff16565b9050818110156133575760008183039050803410151515613351576040517f08c379a00000000000000000000000000000000000000000000000000000000081526004018080602001828103825260398152602001806137846039913960400191505060405180910390fd5b506133a7565b600082820390503373ffffffffffffffffffffffffffffffffffffffff166108fc829081150290604051600060405180830381858888f193505050501580156133a4573d6000803e3d6000fd5b50505b6000809054906101000a900473ffffffffffffffffffffffffffffffffffffffff1673ffffffffffffffffffffffffffffffffffffffff16632715ce86856040015186600001516040518363ffffffff167c01000000000000000000000000000000000000000000000000000000000281526004018083815260200180602001828103825283818151815260200191508051906020019060200280838360005b83811015613462578082015181840152602081019050613447565b505050509050019350505050600060405180830381600087803b15801561348857600080fd5b505af115801561349c573d6000803e3d6000fd5b5050505060086003600089815260200190815260200160002060006101000a81548160ff021916908360088111156134d057fe5b02179055506000809054906101000a900473ffffffffffffffffffffffffffffffffffffffff1673ffffffffffffffffffffffffffffffffffffffff1663ebb0f0a985604001516040518263ffffffff167c010000000000000000000000000000000000000000000000000000000002815260040180828152602001915050600060405180830381600087803b15801561356957600080fd5b505af115801561357d573d6000803e3d6000fd5b505050507f610f15d91c8a87f61ec3bdff536db3f7968f81d7d8b11902eb86011143959eda876040518082815260200191505060405180910390a150505050505050565b60008082848115156135cf57fe5b0490508091505092915050565b60008282111515156135ea57fe5b818303905092915050565b600080828401905083811015151561360957fe5b8091505092915050565b6000808314156136265760009050613648565b6000828402905082848281151561363957fe5b0414151561364357fe5b809150505b92915050565b60e060405190810160405280606081526020016060815260200160008152602001600081526020016000815260200160008152602001600081525090565b828054828255906000526020600020908101928215613705579160200282015b828111156137045782518260006101000a81548173ffffffffffffffffffffffffffffffffffffffff021916908373ffffffffffffffffffffffffffffffffffffffff160217905550916020019190600101906136ac565b5b5090506137129190613716565b5090565b61375691905b8082111561375257600081816101000a81549073ffffffffffffffffffffffffffffffffffffffff02191690555060010161371c565b5090565b9056fe4163636570745472616e73616374696f6e3a205472616e73616374696f6e206861732065787069726564436f6e6669726d5472616e73616374696f6e3a2056616c7565206d757374206265206772656174657220636f73747320696e6375727265642e53656c6c657243616e63656c5472616e73616374696f6e3a207265717569726520726570726573656e7461746976652073656c6c6572734372656174655472616e73616374696f6e3a204465706f736974207072696365206d75737420626520736d616c6c6572207468616e207472616e7366657220707269636553656c6c657243616e63656c5472616e73616374696f6e3a2056616c7565206d7573742062652067726561746572207468616e2032202a206465706f736974207072696365427579657243616e63656c5472616e73616374696f6e3a207265717569726520726570726573656e746174697665206275796572735061796d656e743a205472616e73616374696f6e2068617320657870697265642e43616e63656c5472616e73616374696f6e3a2056616c7565206d757374206265206772656174657220636f6d70656e736174696f6e20616d6f756e742e4163636570745472616e73616374696f6e3a207265717569726520726570726573656e746174697665206f66206f776e65724372656174655472616e73616374696f6e3a2052657175697265207374617465206f66206365727469666963617465206973204143544956415445436f6e6669726d5472616e73616374696f6e3a205472616e73616374696f6e2068617320657870697265642e43616e63656c5472616e73616374696f6e3a2056616c7565206d7573742062652067726561746572207468616e20636f6d70656e736174696f6e20616d6f756e742e42616c61636520636f6e74726163742061646472657373206e6f7420656e6f75676843616e63656c5472616e73616374696f6e3a20596f75277265206e6f74207065726d697373696f6e2e4372656174655472616e73616374696f6e3a20526571756972652076616c75652067726561746572207468616e206465706f7369742070726963655061796d656e743a204f6e6c7920726570726573656e746174697665206f66206275796572732e5061796d656e743a2056616c7565206d7573742062652067726561746572207468616e20746f74616c20616d6f756e74416c6c6f774d6f646966793a205472616e73616374696f6e2063616e277420616c6c6f77206d6f6469666965722e436f6e6669726d5472616e73616374696f6e3a205265717569726520726570726573656e746174697665206f662073656c6c6572732ea165627a7a723058200546839e339b54196cd68de7fb170aa82b9d3b75e7267a42bde8ba27c7f55d540029",
  "source": "pragma solidity ^0.5.0;\r\nimport \"./SafeMath.sol\";\r\n\r\n// Interface real esate\r\ninterface IRealEstate {\r\n\tfunction getOwnersOfCert(uint256 _idCertificate)\r\n\t\texternal\r\n\t\tview\r\n\t\treturns (address[] memory);\r\n\r\n\tfunction getRepresentativeOfOwners(uint256 _idCertificate)\r\n\t\texternal\r\n\t\tview\r\n\t\treturns (address);\r\n\r\n    // 0: PENDING - 1: ACTIVATE - 2: IN_TRANSACTION\r\n\tfunction getStateOfCert(uint256 _idCertificate) external view returns(uint8);\r\n\r\n\tfunction setStateOfCertInTransaction(uint256 _idCertificate) external;\r\n\r\n\tfunction setStateOfCertOutTransaction(uint256 _idCertificate) external;\r\n\r\n\tfunction transferOwnership(\r\n\t\tuint256 _idCertificate,\r\n\t\taddress[] calldata _newOwners\r\n\t) external;\r\n}\r\n\r\n/**\r\n * @dev Contract manager transaction of real estate\r\n */\r\n\r\ncontract Transaction {\r\n\r\n    // ------------------------------ Variables ------------------------------\r\n\r\n\tusing SafeMath for uint256;\r\n\r\n\tIRealEstate RealEstate;\r\n    uint256 public id;\r\n\taddress private owner;\r\n\r\n    // state of transaction\r\n\tenum State {\r\n\t\tDEPOSIT_REQUEST,                // Transaction created\r\n\t\tDEPOSIT_CANCELED_BY_BUYER,      // Buyer cancel transaction, transaction has not been signed\r\n\t\tDEPOSIT_CANCELED_BY_SELLER,     // Seller cancel transaction, transaction has not been signed\r\n\t\tDEPOSIT_SIGNED,                 // seller sign transaction\r\n\t\tDEPOSIT_BROKEN_BY_BUYER,        // Buyer cancel transaction, transaction signed\r\n\t\tDEPOSIT_BROKEN_BY_SELLER,       // Seller cancel transaction, transaction signed\r\n\t\tTRANSFER_REQUEST,               // Buyer transfer remaining amount (same requrest transfer contract)\r\n\t\tTRANSFER_CANCELED_BY_SELLER,    // Seller refuse (same BRAKE_DEPOSIT)\r\n\t\tTRANSFER_SIGNED                 // Seller sign transaction => Finish\r\n\t}\r\n\r\n    mapping(uint256 => State) public idToState;             // mapping id to state of transaction\r\n\tmapping(uint256 => Transaction) public idToTransaction; // mapping id to data of transaction\r\n\r\n\tstruct Transaction {\r\n\t\taddress[] buyers;\r\n\t\taddress[] sellers;\r\n\t\tuint256 idCertificate;\r\n\t\tuint256 depositPrice;\r\n\t\tuint256 transferPrice;\r\n\t\tuint256 timeStart;\r\n\t\tuint256 timeEnd;\r\n\t}\r\n\r\n    // -------------------------------- Event --------------------------------\r\n\tevent TransactionCreated(\r\n\t\taddress[] buyers,\r\n\t\taddress[] sellers,\r\n\t\tuint256 idTransaction,\r\n\t\tuint256 idCertificate,\r\n\t\tuint256 depositPrice,\r\n\t\tuint256 transferPrice,\r\n\t\tuint256 timeStart,\r\n\t\tuint256 timeEnd\r\n\t);\r\n\r\n\tevent DepositSigned(\r\n\t    uint256 idTransaction\r\n\t);\r\n\r\n\tevent TransactionCanceled(\r\n\t    uint256 idTransaction,\r\n\t    State state\r\n\t);\r\n\r\n    event Payment(uint256 idTransaction);\r\n\r\n\tevent TransactionSuccess(\r\n        uint256 idTransaction\r\n\t);\r\n\r\n\tconstructor(IRealEstate _realEstateContractAddress) public {\r\n\t\tRealEstate =  IRealEstate(_realEstateContractAddress);\r\n// \t\t_realEstateContractAddress;\r\n\t}\r\n\r\n\tfunction setRealEstateContract(IRealEstate _realEstateContractAddress)\r\n\t\tpublic\r\n\t{\r\n\t\tRealEstate = IRealEstate(_realEstateContractAddress);\r\n\t}\r\n\r\n    // ------------------------------ Core Function ------------------------------\r\n\t/**\r\n     * @notice Create transaction (same send request deposit contract)\r\n     * @dev Buyer create transaction and send deposit amount to contract address\r\n     */\r\n\tfunction createTransaction(\r\n\t\taddress[] memory _buyers,\r\n\t\tuint256 _idCertificate,\r\n\t\tuint256 _depositPrice,\r\n\t\tuint256 _transferPrice,\r\n\t\tuint256 _depositTime // days\r\n\t) public payable {\r\n\t\trequire(RealEstate.getStateOfCert(_idCertificate) == 1, \"CreateTransaction: Require state of certificate is ACTIVATE\");\r\n\t   // require(_buyers[0] == msg.sender, \"Transaction: Require first buyer is msg.sender\");\r\n\t\trequire(\r\n\t\t\tmsg.value >= _depositPrice,\r\n\t\t\t\"CreateTransaction: Require value greater than deposit price\"\r\n\t\t);\r\n\t\trequire(_depositPrice <= _transferPrice, \"CreateTransaction: Deposit price must be smaller than transfer price\");\r\n\t\taddress[] memory owners = RealEstate.getOwnersOfCert(_idCertificate);\r\n\t\tuint256 timeEnd = now + _depositTime * 24 * 60 * 60; // convert days to seconds\r\n\t\tTransaction memory transaction = Transaction({\r\n\t\t\tbuyers: _buyers,\r\n\t\t\tsellers: owners,\r\n\t\t\tidCertificate: _idCertificate,\r\n\t\t\tdepositPrice: _depositPrice,\r\n\t\t\ttransferPrice: _transferPrice,\r\n\t\t\ttimeStart: now,\r\n\t\t\ttimeEnd: timeEnd\r\n\t\t});\r\n\t\tid = id.add(1);\r\n\t\tidToTransaction[id] = transaction;\r\n\t\tidToState[id] = State.DEPOSIT_REQUEST;\r\n\t\temit TransactionCreated(\r\n\t\t\t_buyers,\r\n\t\t\towners,\r\n\t\t\tid,\r\n\t\t\t_idCertificate,\r\n\t\t\t_depositPrice,\r\n\t\t\t_transferPrice,\r\n\t\t\tnow,\r\n\t\t\ttimeEnd\r\n\t\t);\r\n\t}\r\n\r\n\r\n    /**\r\n     * @notice Accept deposit (same signed the deposit contract)\r\n     * @dev Allow only representative of seller call\r\n     * Seller will receive the deposit amount and set state to SIGNED\r\n     */\r\n\tfunction acceptTransaction(uint256 _idTransaction)\r\n\t\tpublic\r\n\t\tonlyState(_idTransaction, State.DEPOSIT_REQUEST)\r\n\t{\r\n\t\tTransaction memory transaction = idToTransaction[_idTransaction];\r\n\t\trequire(now <= transaction.timeEnd, \"AcceptTransaction: Transaction has expired\");\r\n\t\taddress representativeOwners = transaction.sellers[0];\r\n\t\trequire(\r\n\t\t\t(msg.sender == representativeOwners),\r\n\t\t\t\"AcceptTransaction: require representative of owner\"\r\n\t\t);\r\n\t\tmsg.sender.transfer(transaction.depositPrice);\r\n\t\tidToState[_idTransaction] = State.DEPOSIT_SIGNED;\r\n\t\tRealEstate.setStateOfCertInTransaction(transaction.idCertificate);\r\n\t\temit DepositSigned(_idTransaction);\r\n\t}\r\n\r\n\t/**\r\n\t * @notice Buyer cancel transaction\r\n\t * @dev Only transactions are subject to change (can modify state of transaction)\r\n     * if transaction not signed => refund deposit amount to buyers\r\n     * if transaction signed => buyer lost the deposit price\r\n\t */\r\n    function buyerCancelTransaction(uint256 _idTransaction) public allowModify(_idTransaction){\r\n        Transaction memory transaction = idToTransaction[_idTransaction];\r\n        require(msg.sender == transaction.buyers[0],\"BuyerCancelTransaction: require representative buyers\");\r\n        // if state of transaction DEPOSIT_REQUEST => cancel and recive deposit price\r\n        if(idToState[_idTransaction] == State.DEPOSIT_REQUEST){\r\n            msg.sender.transfer(transaction.depositPrice);\r\n            idToState[_idTransaction] = State.DEPOSIT_CANCELED_BY_BUYER;\r\n        }\r\n        else if(idToState[_idTransaction] == State.DEPOSIT_SIGNED){\r\n            idToState[_idTransaction] = State.DEPOSIT_BROKEN_BY_BUYER;\r\n        }\r\n        else if(idToState[_idTransaction] == State.TRANSFER_REQUEST){\r\n            msg.sender.transfer(transaction.transferPrice.sub(transaction.depositPrice).add(transaction.transferPrice.div(200)));\r\n            idToState[_idTransaction] = State.DEPOSIT_BROKEN_BY_BUYER;\r\n        }\r\n        RealEstate.setStateOfCertOutTransaction(transaction.idCertificate);\r\n\t\temit TransactionCanceled(_idTransaction, idToState[_idTransaction]);\r\n    }\r\n\r\n\t/**\r\n\t * @notice Seller cancel transaction\r\n\t * @dev Only transactions are subject to change (can modify state of transaction)\r\n     * if transaction not signed => refund deposit amount to buyers\r\n     * if transaction signed => seller send compensation = 2 * deposit price to buyer\r\n\t */\r\n    function sellerCancelTransaction(uint256 _idTransaction) public payable allowModify(_idTransaction){\r\n        Transaction memory transaction = idToTransaction[_idTransaction];\r\n        require(msg.sender == transaction.sellers[0],\"SellerCancelTransaction: require representative sellers\");\r\n        // seller refuse DEPOSIT_REQUEST of buyer => buyers recive depositPrice previously transferred\r\n\t    if(idToState[_idTransaction] == State.DEPOSIT_REQUEST){\r\n\t        address payable buyer = address(uint160(transaction.buyers[0]));\r\n\t        buyer.transfer(transaction.depositPrice);\r\n\t        idToState[_idTransaction] = State.DEPOSIT_CANCELED_BY_SELLER;\r\n\t    }\r\n\t\t    // seller break transaction (deposit contract) => compensation for buyer\r\n\t    else if(idToState[_idTransaction] == State.DEPOSIT_SIGNED){\r\n\t        uint256 compensationAmount = transaction.depositPrice.mul(2);\r\n\t\trequire(\r\n\t\t\tmsg.value >= compensationAmount,\r\n\t\t\t\"SellerCancelTransaction: Value must be greater than 2 * deposit price\"\r\n\t\t    );\r\n\t    \taddress payable buyer = address(uint160(transaction.buyers[0]));\r\n\t\t    buyer.transfer(compensationAmount);\r\n\t\t    idToState[_idTransaction] = State.DEPOSIT_BROKEN_BY_SELLER;\r\n\t    }\r\n        // if buyer sended payment => refund payment + 0.5% tax and compensation amount\r\n        else if(idToState[_idTransaction] == State.TRANSFER_REQUEST){\r\n\t        uint256 compensationAmount = transaction.depositPrice.mul(2);\r\n            uint256 transferAmount = transaction.transferPrice.sub(transaction.depositPrice);\r\n            uint256 totalAmount = transferAmount.add(compensationAmount).add(transaction.transferPrice.div(200));// value return to buyer\r\n\t\trequire(\r\n\t\t\tmsg.value >= compensationAmount,\r\n\t\t\t\"SellerCancelTransaction: Value must be greater than 2 * deposit price\"\r\n\t\t    );\r\n            require(address(this).balance >= totalAmount, \"Balace contract address not enough\");\r\n\t    \taddress payable buyer = address(uint160(transaction.buyers[0]));\r\n\t\t    buyer.transfer(totalAmount);\r\n\t\t    idToState[_idTransaction] = State.TRANSFER_CANCELED_BY_SELLER;\r\n\t    }\r\n        RealEstate.setStateOfCertOutTransaction(transaction.idCertificate);\r\n\t\temit TransactionCanceled(_idTransaction, idToState[_idTransaction]);\r\n    }\r\n\r\n\t/**\r\n\t * @notice Cancel transaction\r\n\t * @dev Only transactions are subject to change (can modify state of transaction)\r\n     * if transaction not signed => refund deposit amount to buyers\r\n     * if transaction signed and sellers call => send compensation for buyers\r\n\t */\r\n\tfunction cancelTransaction(uint256 _idTransaction)\r\n\t\tpublic\r\n\t\tpayable\r\n \t\tallowModify(_idTransaction)\r\n\t{\r\n\t\tTransaction memory transaction = idToTransaction[_idTransaction];\r\n\t\tif (msg.sender == transaction.buyers[0]) {\r\n\t\t    // buyer cancel DEPOSTI_REQUEST and recive depositPrice\r\n\t\t    if(idToState[_idTransaction] == State.DEPOSIT_REQUEST){\r\n\t\t        msg.sender.transfer(transaction.depositPrice);\r\n\t\t\t    idToState[_idTransaction] = State.DEPOSIT_CANCELED_BY_BUYER;\r\n\t\t    }\r\n\t\t    // buyer break transaction (deposit contract) => never recive the depositPrice previously transferred\r\n\t\t\telse if(idToState[_idTransaction] == State.DEPOSIT_SIGNED){\r\n\t\t\t    idToState[_idTransaction] = State.DEPOSIT_BROKEN_BY_BUYER;\r\n\t\t\t}\r\n            else if(idToState[_idTransaction] == State.TRANSFER_REQUEST){\r\n                msg.sender.transfer(transaction.transferPrice.sub(transaction.depositPrice).add(transaction.transferPrice.div(200)));\r\n                idToState[_idTransaction] = State.DEPOSIT_BROKEN_BY_BUYER;\r\n            }\r\n\t\t} else if (msg.sender == transaction.sellers[0]) {\r\n\t\t    // seller refuse DEPOSIT_REQUEST of buyer => buyers recive depositPrice previously transferred\r\n\t\t    if(idToState[_idTransaction] == State.DEPOSIT_REQUEST){\r\n\t\t        address payable buyer = address(uint160(transaction.buyers[0]));\r\n\t\t        buyer.transfer(transaction.depositPrice);\r\n\t\t        idToState[_idTransaction] = State.DEPOSIT_CANCELED_BY_SELLER;\r\n\t\t    }\r\n\t\t    // seller break transaction (deposit contract) => compensation for buyer\r\n\t\t    else if(idToState[_idTransaction] == State.DEPOSIT_SIGNED){\r\n\t\t        uint256 compensationAmount = transaction.depositPrice.mul(2);\r\n\t\t\trequire(\r\n\t\t\t\tmsg.value >= compensationAmount,\r\n\t\t\t\t\"CancelTransaction: Value must be greater compensation amount.\"\r\n\t\t\t    );\r\n\t\t    \taddress payable buyer = address(uint160(transaction.buyers[0]));\r\n\t\t\t    buyer.transfer(compensationAmount);\r\n\t\t\t    idToState[_idTransaction] = State.DEPOSIT_BROKEN_BY_BUYER;\r\n\t\t    }\r\n            // if buyer sended payment => refund payment and compensation\r\n            else if(idToState[_idTransaction] == State.TRANSFER_REQUEST){\r\n\t\t        uint256 compensationAmount = transaction.depositPrice.mul(2);\r\n                uint256 totalAmount = transaction.transferPrice.add(compensationAmount).add(transaction.transferPrice.div(200));\r\n\t\t\trequire(\r\n\t\t\t\tmsg.value >= compensationAmount,\r\n\t\t\t\t\"CancelTransaction: Value must be greater than compensation amount.\"\r\n\t\t\t    );\r\n\t\t    \taddress payable buyer = address(uint160(transaction.buyers[0]));\r\n\t\t\t    buyer.transfer(totalAmount);\r\n\t\t\t    idToState[_idTransaction] = State.TRANSFER_CANCELED_BY_SELLER;\r\n\t\t    }\r\n\t\t} else {\r\n\t\t\trevert(\"CancelTransaction: You're not permission.\");\r\n\t\t}\r\n\t\tRealEstate.setStateOfCertOutTransaction(transaction.idCertificate);\r\n\t\temit TransactionCanceled(_idTransaction, idToState[_idTransaction]);\r\n\r\n\t}\r\n\r\n\r\n\t/**\r\n     * @notice Payment transaction\r\n     * @dev Only representative of buyer (buyer[0])\r\n     * buyer send remaining amount of transction to contract address (same sign transfer contract)\r\n     */\r\n\tfunction payment(uint256 _idTransaction)\r\n\t\tpublic\r\n\t\tpayable\r\n\t\tonlyState(_idTransaction, State.DEPOSIT_SIGNED)\r\n\t{\r\n\t\tTransaction memory transaction = idToTransaction[_idTransaction];\r\n\t\trequire(now <= transaction.timeEnd, \"Payment: Transaction has expired.\");\r\n\t\taddress representativeBuyer = transaction.buyers[0];\r\n\t\trequire(\r\n\t\t\tmsg.sender == representativeBuyer,\r\n\t\t\t\"Payment: Only representative of buyers.\"\r\n\t\t);\r\n\t\tuint256 remainingAmount = transaction.transferPrice.sub(\r\n\t\t\ttransaction.depositPrice\r\n\t\t);\r\n\t\tuint256 registrationTax = transaction.transferPrice.div(200); // 0.5% tax\r\n\t\tuint256 totalAmount = remainingAmount.add(registrationTax);\r\n\t\trequire(\r\n\t\t\t(msg.value >= totalAmount),\r\n\t\t\t\"Payment: Value must be greater than total amount\"\r\n\t\t);\r\n\t\tidToState[_idTransaction] = State.TRANSFER_REQUEST;\r\n        emit Payment(_idTransaction);\r\n    }\r\n\r\n\r\n\t/**\r\n     * @notice Confirm transaction\r\n     * @dev Seller confirm transaction recive remaining amount of transaction\r\n     * and transfer ownership of certificate to buyer\r\n     */\r\n\tfunction confirmTransaction(uint256 _idTransaction)\r\n\t\tpublic payable\r\n\t\tonlyState(_idTransaction, State.TRANSFER_REQUEST)\r\n\t{\r\n\t\tTransaction memory transaction = idToTransaction[_idTransaction];\r\n\t\trequire(now  <= transaction.timeEnd, \"ConfirmTransaction: Transaction has expired.\");\r\n\t\taddress representativeSellers = transaction.sellers[0];\r\n\t\trequire(\r\n\t\t\tmsg.sender == representativeSellers,\r\n\t\t\t\"ConfirmTransaction: Require representative of sellers.\"\r\n\t\t);\r\n\t\tuint256 personalIncomeTax = transaction.transferPrice.div(50); // 2% tax\r\n\t\tuint256 remainingAmount = transaction.transferPrice.sub(transaction.depositPrice);\r\n\t\t// remaining amount < personal tax => it must pay more.\r\n\t\tif(remainingAmount < personalIncomeTax){\r\n\t\t\tuint256 costsIncurred = personalIncomeTax - remainingAmount;\r\n\t\t\trequire(msg.value >= costsIncurred, \"ConfirmTransaction: Value must be greater costs incurred.\");\r\n\t\t}\r\n\t\telse{\r\n\t\t\tuint256 valueAfterTax = remainingAmount - personalIncomeTax;\r\n\t\t\tmsg.sender.transfer(valueAfterTax);\r\n\t\t}\r\n\t\tRealEstate.transferOwnership(\r\n\t\t\ttransaction.idCertificate,\r\n\t\t\ttransaction.buyers\r\n\t\t);\r\n        idToState[_idTransaction] = State.TRANSFER_SIGNED;\r\n\t\tRealEstate.setStateOfCertOutTransaction(transaction.idCertificate);\r\n        emit TransactionSuccess(_idTransaction);\r\n\t}\r\n\r\n    // ------------------------------ View Function ------------------------------\r\n    /**\r\n     * @notice Get information of transaction\r\n     */\r\n\tfunction getTransaction(uint256 _idTransaction)\r\n\t\tpublic\r\n\t\tview\r\n\t\treturns (\r\n\t\t\taddress[] memory,\r\n\t\t\taddress[] memory,\r\n\t\t\tuint256,\r\n\t\t\tuint256,\r\n\t\t\tuint256,\r\n\t\t\tuint256,\r\n\t\t\tuint256\r\n\t\t)\r\n\t{\r\n\t\tTransaction memory transaction = idToTransaction[_idTransaction];\r\n\t\treturn (\r\n\t\t\ttransaction.buyers,\r\n\t\t\ttransaction.sellers,\r\n\t\t\ttransaction.idCertificate,\r\n\t\t\ttransaction.depositPrice,\r\n\t\t\ttransaction.transferPrice,\r\n\t\t\ttransaction.timeStart,\r\n\t\t\ttransaction.timeEnd\r\n\t\t);\r\n\t}\r\n\r\n    // ------------------------------ Mofifier ------------------------------\r\n    modifier onlyState(uint256 _idTransaction, State _state) {\r\n        require(\r\n            (idToState[_idTransaction] == _state),\r\n            \"OnlyState: Require state.\"\r\n        );\r\n        _;\r\n    }\r\n\r\n    modifier allowModify(uint256 _idTransaction){\r\n        require((idToState[_idTransaction] == State.DEPOSIT_REQUEST || idToState[_idTransaction] == State.DEPOSIT_SIGNED || idToState[_idTransaction] == State.TRANSFER_REQUEST),\"AllowModify: Transaction can't allow modifier.\");\r\n        _;\r\n    }\r\n\r\n}\r\n",
  "sourcePath": "C:\\Users\\BAP\\Desktop\\land-trade\\contracts\\Transaction.sol",
  "compiler": {
    "name": "solc",
    "version": "0.5.3+commit.10d17f24.Emscripten.clang"
  },
  "schemaVersion": "3.4.10",
  "updatedAt": "2022-10-12T10:11:15.228Z",
  "networkType": "ethereum",
  "devdoc": {
    "details": "Contract manager transaction of real estate\r",
    "methods": {
      "acceptTransaction(uint256)": {
        "details": "Allow only representative of seller call\r Seller will receive the deposit amount and set state to SIGNED\r"
      },
      "buyerCancelTransaction(uint256)": {
        "details": "Only transactions are subject to change (can modify state of transaction)\r if transaction not signed => refund deposit amount to buyers\r if transaction signed => buyer lost the deposit price\r"
      },
      "cancelTransaction(uint256)": {
        "details": "Only transactions are subject to change (can modify state of transaction)\r if transaction not signed => refund deposit amount to buyers\r if transaction signed and sellers call => send compensation for buyers\r"
      },
      "confirmTransaction(uint256)": {
        "details": "Seller confirm transaction recive remaining amount of transaction\r and transfer ownership of certificate to buyer\r"
      },
      "createTransaction(address[],uint256,uint256,uint256,uint256)": {
        "details": "Buyer create transaction and send deposit amount to contract address\r"
      },
      "payment(uint256)": {
        "details": "Only representative of buyer (buyer[0])\r buyer send remaining amount of transction to contract address (same sign transfer contract)\r"
      },
      "sellerCancelTransaction(uint256)": {
        "details": "Only transactions are subject to change (can modify state of transaction)\r if transaction not signed => refund deposit amount to buyers\r if transaction signed => seller send compensation = 2 * deposit price to buyer\r"
      }
    }
  },
  "userdoc": {
    "methods": {
      "acceptTransaction(uint256)": {
        "notice": "Accept deposit (same signed the deposit contract)\r"
      },
      "buyerCancelTransaction(uint256)": {
        "notice": "Buyer cancel transaction\r"
      },
      "cancelTransaction(uint256)": {
        "notice": "Cancel transaction\r"
      },
      "confirmTransaction(uint256)": {
        "notice": "Confirm transaction\r"
      },
      "createTransaction(address[],uint256,uint256,uint256,uint256)": {
        "notice": "Create transaction (same send request deposit contract)\r"
      },
      "getTransaction(uint256)": {
        "notice": "Get information of transaction\r"
      },
      "payment(uint256)": {
        "notice": "Payment transaction\r"
      },
      "sellerCancelTransaction(uint256)": {
        "notice": "Seller cancel transaction\r"
      }
    }
  }
}